:100000004C3084004E3005200D2864008001840AA5
:100010000406031900340406062800308C00003062
:100020008D003030831686000F3085000310831258
:100030000030031801308500031000300318013030
:100040008600043083128600252806083039031DF7
:100050002A282B2825282C2806083039031931286E
:1000600032282C2802309400003095009A224A2829
:10007000043086006328EA2242236328B422422304
:1000800063288422422363280310003003180130C0
:10009000860063288312060830398E008F015E289F
:1000A0000E08003A03193828103A03193B28303A51
:1000B00003193E28103A0319412844280F08003A32
:0A00C00003195028442821280028C5
:1005080003308600872A0508900091019009910917
:100518000C30100592000030110593000C301206C3
:1005280013040319982A992A872A0800003096008C
:1005380000309700A52A013096070318970A003063
:1005480097071708803A98001508803A1802031D83
:10055800AF2A14081602031CB22AB32A9F2A0800DD
:1005680002308600C42A023086000230940000302F
:1005780095009A2203108312003003180130860078
:10058800050890009101900991099018CC2ACD2A6C
:10059800B72ADB2A0230860002309400003095002A
:1005A8009A220310831200300318013086000508D0
:1005B8009000910190099109901CE32AE42ACE2A1F
:1005C800031000300318013086000800013086004F
:1005D80001304C064D04031DF22AF32A0E2B012B81
:1005E8000130860002309400003095009A220310F2
:1005F800831200300318013086000508900091012D
:1006080090099109901C092B0A2BF42A0030CC0080
:100618000030CD001C2B01308600023094000030E1
:1006280095009A22031083120030031801308600C7
:10063800050890009101900991099018242B252B09
:100648000F2B332B013086000230940000309500C8
:100658009A2203108312003003180130860005081F
:100668009000910190099109901C3B2B3C2B262B63
:10067800031000300318013086000800DA2BAF2B76
:100688000330860002309400003095009A2203104F
:1006980083120030031801308600DA2B03308600FD
:1006A80002309400003095009A2203108312003023
:1006B800031801308600DA2B0230860002309400DD
:1006C800003095009A22031083120030031801307D
:1006D8008600DA2B02308600023094000030950044
:1006E8009A22031083120030031801308600DA2B97
:1006F8000130860002309400003095009A220310E1
:1007080083120030031801308600DA2B013086008E
:1007180002309400003095009A22031083120030B2
:10072800031801308600DA2B0130CC000030CD00F0
:1007380003100030031801308600DA2B0310003054
:100748000318013086000030CC000030CD00DA2BD1
:1007580008308600DA2B050890009101900991096C
:100768000E3010059200003011059300D52B1208A9
:10077800003A0319442B023A0319522B063A03197B
:10078800602B023A03196E2B0E3A03197C2B023A9E
:1007980003198A2B063A0319982B023A0319A22B3C
:1007A800AC2B1308003A0319BB2BAC2B831205089A
:1007B80090009101900991090E30100592000030C7
:1007C800110593000E30120613040319EC2BED2BC0
:1007D800FF2B050890009101900991090E30100532
:1007E80092000030110593000C3012061304031D0B
:0807F800FE2BFF2B432B080030
:00000001FF
